:020000040000fa
:020000040040ba
:10000000f07f0220990b45001111450013114500a6
:1000100017114500191145001b1145000000000093
:10002000000000000000000000000000870d4500f7
:100030001511450000000000870d4500870d4500a3
:10004000870d4500870d4500870d4500870d45004c
:10005000870d4500870d4500870d4500870d45003c
:10006000870d4500870d450000000000870d450005
:10007000870d4500870d4500870d4500870d45001c
:10008000870d4500870d4500870d4500870d45000c
:10009000870d4500870d4500870d4500870d4500fc
:1000a000870d4500870d4500870d4500870d4500ec
:1000b000870d4500870d450000000000000000008e
:1000c0000000000000000000000000000000000030
:1000d0000000000000000000000000000000000020
:1000e0000000000000000000000000000000000010
:1000f000000000000000000000000000870d450027
:08010000870d4500870d450045
:020000040000fa
:020000040040ba
:10010800f8b500bff8bc08bc9e467047250f4500ef
:10011800f8b500bff8bc08bc9e467047010f450003
:020000040000fa
:020000040040ba
:100128000218850221dbe47862f2220222f002182a
:10013800ba000002221c02188522220222fe222274
:100148002222ff0222c5ffffffffff0222fdffff61
:10015800ffffff0222ef9068af7402f0a3e5a5f05d
:10016800a37480f0af81a807e6a3f0a37416f0e5a6
:100178008114f8e6a3f07c687dab7f04122409e4bf
:10018800feff220222fe0202a8e86480f8e933e8b2
:100198003360110460f0ed33ec337009e8fce9fddd
:1001a800eafeebff220460ded3eb9fea9ee99de8be
:1001b800c2e78cf0c2f795f0400ce8ccf8e9cdf92d
:1001c800eacefaebcffb12027385d0f05804700325
:1001d80020d5b3e80470075002b2d50202b292d516
:1001e800ec0460f7e4ccc0e0c398f8603b94186076
:1001f80008400dd0e0fb02028ae4fbfac9fc802823
:10020800e830e406e4c9fbe4cafce830e305e4c9e5
:10021800cacbfce854076010f8c3e913f9ea13faeb
:10022800eb13fbec13fcd8f130f52fc3e49cfcef87
:100238009bffee9afeed99fdd0e0fbef4e4d4c7022
:100248001222db030202afec2cfcef33ffee33fe8d
:10025800ed33fded30e7eb02028aef2bffee3afebd
:10026800ed39fdd0e0fb50130bbb00030202b2ede9
:1002780013fdee13feef13ffec13fc02028a0202d9
:10028800b2ec5d046005e8590470030202a812028a
:1002980073580460f6ec4860f2ec7004fdfeff222f
:1002a800c860db2481c85009c39860025006020266
:1002b800af9850caf582e9294b4a7005ab82020211
:1002c8009e75f0007c1a7880c3ef9bee9aed9940fa
:1002d8000dc3ef9bffee9afeed99fde842f0dc239b
:1002e800acf0d0e0ffd0e0fed0e0fdab8220e7101c
:1002f8001beb60baec2cfcef33ffee33feed33fd65
:1003080002028ae803f830e705c0f075f000ef2f25
:10031800ffee33feed33fd40b830e7c280aa75f03a
:1003280020800e75f010800575f0087d007e007f36
:10033800003392d530d503120681ec334010ef33e9
:10034800ffee33feed33fdec33fcd5f0ed22e5f0a6
:10035800247ea2d513cc92e7cdceff22edd2e7cdf5
:1003680033ec3392d524814006e4fffefdfc22fce9
:10037800e4cfcecdcc24e0501174ff80edc3cc1374
:10038800cccd13cdce13cecf13cf0470f030d5de45
:10039800020681e9d2e7c933e833f892d5edd2e70e
:1003a800cd33ec33fc5002b2d522ec30e7100fbf4e
:1003b800000c0ebe00080dbd00040beb6014a2d5a6
:1003c800eb13fced92e7fd2274fffcfdfeff22e437
:1003d80080f8a2d574ff13fc7d80e480efe709f66e
:1003e80008dffa8046e709f208dffa803e88828c47
:1003f80083e709f0a3dffa8032e309f608dffa8021
:1004080078e309f208dffa807088828c83e309f0c8
:10041800a3dffa806489828a83e0a3f608dffa8082
:100428005889828a83e0a3f208dffa804c80d28060
:10043800fa80c680d4806980f28033801080a680dc
:10044800ea809a80a880da80e280ca803389828a2a
:1004580083ecfae493a3c8c582c8ccc583ccf0a3c7
:10046800c8c582c8ccc583ccdfe9dee7800d8982a8
:100478008a83e493a3f608dff9ecfaa9f0edfb22ee
:1004880089828a83ecfae0a3c8c582c8ccc583cc2c
:10049800f0a3c8c582c8ccc583ccdfeadee880db20
:1004a80089828a83e493a3f208dff980cc88f0ef8d
:1004b80060010e4e60c388f0ed2402b4040050b908
:1004c800f582eb2402b4040050af23234582239025
:1004d800030d73bb010689828a83e0225002e7225a
:1004e800bbfe02e32289828a83e49322bb010ce5e6
:1004f8008229f582e5833af583e0225006e92582d0
:10050800f8e622bbfe06e92582f8e222e58229f513
:1005180082e5833af583e49322bb010ff8e582294b
:10052800f582e5833af583e028f0225009c582294f
:10053800f8e58226f622bbfe09c58229f8e2258263
:10054800f222f8ea2583f583e9932822bb0106897c
:10055800828a83f0225002f722bbfe01f322f8bb05
:10056800010de58229f582e5833af583e8f022500a
:1005780006e92582c8f622bbfe05e92582c8f222d3
:10058800ef8df0a4a8f0cf8cf0a428ce8df0a42e87
:10059800fe22c5f0f8a3e028f0c5f0f8e582158240
:1005a80070021583e038f022a3f8e0c5f025f0f0da
:1005b800e582158270021583e0c838f0e822bb0195
:1005c80010e58229f582e5833af583e0f5f0a3e0aa
:1005d800225009e92582f886f008e622bbfe0ae9de
:1005e8002582f8e2f5f008e222e5832af583e9930b
:1005f800f5f0a3e99322bb010a89828a83f0e5f02a
:10060800a3f0225006f709a7f01922bbfe06f3e56e
:10061800f009f31922f8bb0111e58229f582e58377
:100628003af583e8f0e5f0a3f0225009e92582c8fd
:10063800f608a6f022bbfe09e92582c8f2e5f00813
:10064800f222ef2bffee3afeed39fdec38fc22c327
:10065800ef9bffee9afeed99fdec98fc22e88ff0f7
:10066800a4cc8bf0a42cfce98ef0a42cfc8af0ed31
:10067800a42cfcea8ef0a4cda8f08bf0a42dcc38e5
:1006880025f0fde98ff0a42ccd35f0fceb8ef0a41d
:10069800fea9f0eb8ff0a4cfc5f02ecd39fee43cd7
:1006a800fceaa42dce35f0fde43cfc2275f008757b
:1006b8008200ef2fffee33fecd33cdcc33ccc58295
:1006c80033c5829bed9aec99e58298400cf582ee51
:1006d8009bfeed9afdec99fc0fd5f0d6e4cefbe439
:1006e800cdfae4ccf9a88222b800c1b90059ba0001
:1006f8002dec8bf084cfcecdfce5f0cbf97818ef5c
:100708002fffee33feed33fdec33fceb33fb10d75c
:1007180003994004eb99fb0fd8e5e4f9fa2278181d
:10072800ef2fffee33feed33fdec33fcc933c91078
:10073800d7059be99a4007ec9bfce99af90fd8e0aa
:10074800e4c9fae4ccfb2275f010ef2fffee33fe7c
:10075800ed33fdcc33ccc833c810d7079bec9ae8ef
:1007680099400aed9bfdec9afce899f80fd5f0da70
:10077800e4cdfbe4ccfae4c8f922ef5bffee5afec5
:10078800ed59fdec58fc22ef4bffee4afeed49fd1a
:10079800ec48fc22ef6bffee6afeed69fdec68fcad
:1007a80022c3e49fffe49efee49dfde49cfc22eb53
:1007b8009ff5f0ea9e42f0e99d42f0e89c45f02260
:1007c800e8600fecc313fced13fdee13feef13ff0f
:1007d800d8f122e8600fefc333ffee33feed33fdaf
:1007e800ec33fcd8f122bb010de58229f582e583c3
:1007f8003af58302071a5007e92582f8020899bbdf
:10080800fe07e92582f80208a5e58229f582e58335
:100818003af583020726bb010de58229f582e583b7
:100828003af58302074f5007e92582f80208b1bb61
:10083800fe07e92582f802075b22e0fca3e0fda39e
:10084800e0fea3e0ff22e493fc740193fd7402939d
:10085800fe740393ff22e0f8a3e0f9a3e0faa3e013
:10086800fb22e2fb08e2f908e2fa08e2cbf822ec04
:10087800f0a3edf0a3eef0a3eff022ecf208edf216
:1008880008eef208eff222a8828583f0d083d082a6
:1008980012077e12077e12077e12077ee473e49326
:1008a800a3c583c5f0c583c8c582c8f0a3c583c5e1
:1008b800f0c583c8c582c822a42582f582e5f03533
:1008c80083f58322e0fba3e0faa3e0f922f8e0fb3a
:1008d800a3a3e0f925f0f0e582158270021583e004
:1008e800fa38f022ebf0a3eaf0a3e9f022e493fb54
:1008f800740193fa740293f922d083d082f8e493b6
:100908007012740193700da3a393f8740193f58288
:100918008883e4737402936860efa3a3a380dfd095
:1009280083d082f8e4937012740193700da3a3939b
:10093800f8740193f5828883e473740293b5f00622
:100948007403936860e9a3a3a3a380d8d083d0825b
:10095800e4937012740193700da3a393f874019338
:10096800f5828883e4737402936c70127403936d38
:10097800700c7404936e70067405936f60dda3a306
:10098800a3a3a3a380ca8a838982e473ec8ef0a40c
:10099800ccc5f0cccdf8efa4cec5f02dfde43cfce1
:1009a800e8a42ec8c5f03dfde43cfcefa4ffe5f04b
:1009b80028fee43dfde43cfc22e6fc08e6fd08e6f2
:1009c800fe08e6ff22e2fc08e2fd08e2fe08e2ff7c
:1009d80022ecf608edf608eef608eff622e58e2092
:1009e800e30690b8337401f090b825e054fef05354
:1009f800a2f3e4f55df55e000000000000000000d1
:100a080000000000055ee55e7002055db498e8e54b
:100a18005db406e35387f790b83ae054dff0d2a408
:100a2800d2a0d2a053a1ee00000000c205d20078e7
:100a38001fe6ff30e602800eef30e704c2008011a7
:100a480020a40920a006d205c200800520a002c269
:100a58000090a4f77481f01233d3781fe620e33caa
:100a6800e4906feef0a3f07e6f7fee7b02fa7deeee
:100a78007c041233d9906feee0b4aa0ba3e0b4550e
:100a8800067dff7fff80047d237f021233d630006e
:100a98002175a50412e1f5e4f5a58016781fe6b4e2
:100aa800aa05e4fdff8008906cd2e0ffa3e0fd12e8
:100ab80033d6781fe664aa6003020a77758e12900f
:100ac800bf007403f0e490bd03f090b203f090b05f
:100ad80007e04401f0e4f5a57e037f4a7c407dd021
:100ae8007b2d7a011236d5e4f5a57e587f7b7b5f96
:100af800fa7da07c011233d9e478b5f278b5e2ff2b
:100b0800c3943b502d75f002ef90034a120798e00a
:100b1800f55ea3e0f55fe4f5a5ef90408793f55dfa
:100b2800ad5fac5eff12f0d0e4f5a578b5e204f253
:100b380080cae4f5a5fdfc7f1d12f0d07d007c2263
:100b48007f1d12f0d0e4f5a57e037f4a7c587d7b9b
:100b58007b5f1238c3e478b5f278b5e2ffc3941826
:100b68005025123158fea3e04e6015e2ff90036352
:100b780012313cfe123158fca3e0f5828c83eef072
:100b880078b5e204f280d2e490bf00f075a50412b3
:100b9800f2fae4f5a5800e30050be490bd03f0757c
:100ba800a50112b6bf1214ff30030b43a380c287fe
:100bb80012316412316475a897e490b203f01222de
:100bc800ff30002e75a50512c288906cb5e060064e
:100bd800e4f5a512fd62906ce4e06006e4f5a51268
:100be800a9c1906cafe030e30312a22ee4f5a51280
:100bf8003aa2e4f5a512f274e4f5a590be2ae0ff46
:100c08009068efe06f7003020bb890510ee0ff643c
:100c1800016008ef64026003020bb090be2ae0781e
:100c2800bbf290be29e018f2a3e0ff08e2b507eb9b
:100c3800e22401f218e23400f2123144e0700302b7
:100c48000bb0c2afe51e242a123148e0ffa3e078ba
:100c5800b6cff208eff2e51e2428123148e0ffa3d0
:100c6800e008cff208eff2d2af78b6e2fe08e2ff72
:100c7800c378bbe29f79b7f318e29e19f378b8e21c
:100c8800fe08e2ffd378b7e29f18e29e4042e425cf
:100c98001ef582e51d3401f5837408f0123144e431
:100ca800f012243c9058daeef0a3eff02404f58219
:100cb800e43ef5837404f0ef2405f582e43ef58301
:100cc800e51cf09058dae0fca3e0fd7f0612240949
:100cd80090be2ae09068eff0906b2ee030e0097546
:100ce800a50112ef45e4f5a5e490bd0cf0e56f60b1
:100cf80003020a9ef5a512fb9ae4f5a5906b56e04f
:100d0800540f6014e4f5a512df059058dceff0e409
:100d1800f5a5ef6003020a9e906b56e054f070034d
:100d2800020a9ee56f6003020a9ee58754fc4401af
:100d3800f5870000020a9e752d01906835e5a5f03b
:100d480090bf3374fff090bf12e0f52ba3e0f52ab3
:100d5800205b03020d16789ee6fe08e6f5828e8378
:100d6800e0fb30e14690be27e030e03190ba0be07e
:100d7800ff90be27e0c39f601390be00120767ff75
:100d8800ffffff90be13e04420f0801190be0012d8
:100d980007670000000190be13e04420f0789ee64b
:100da800fe08e6f5828e83eb54fdf078a1e6640137
:100db8001846701190ba23f07431f090b469741c1d
:100dc800f0e4f608f6904953e0ff30e12554f5ffca
:100dd800bf611f90be27e030e01190be0012076788
:100de800ffffffff90be13e04420f0904953e0441a
:100df80080f0787ae625e02439f582e43468f583d2
:100e0800e0fea3e0ff788ceef608eff62406f58204
:100e1800e43ef583e52af0ef2407f582e43ef58306
:100e2800e52bf018e6fc08e6fd7f02122508787a23
:100e3800e6045407f622306004122ddc223036090d
:100e480053a4fec212c236c21f787ae625e02439be
:100e5800f582e43468f583e0fea3e0ff788ceef6d3
:100e680008eff62406f582e43ef583e52af0ef2440
:100e780007f582e43ef583e52bf0305f3e20973b93
:100e880053a4fe90b822e0547ff090bf22e0547f34
:100e9800f0e4f52d9057aee0fea3e0ff4e601c9005
:100ea80055cb7404f090a62eeef0a3eff0905367a4
:100eb800eef0a3eff090a6327480f0305602d232f2
:100ec800205003020e73d22e90be27e07858f2907d
:100ed800bc1b7401f07853e27003020e73e4f290c5
:100ee800b85fe0640460f8e0640560f390bf43e035
:100ef80020e203020e73904e1ae0ff90b82be054e4
:100f0800076f6003020e7390bf23e054bff090bfd9
:100f1800337440f090be27e07858f2e2ff90ba0ba5
:100f2800e0c39f04ff3395e0fefdfc90be0012076e
:100f38004f90be13e04420f090b82be05478f52e83
:100f4800d2186470602fe52e64786029e52e64500d
:100f58006023e52e6458601d90be17e04402f0003f
:100f680000000090be03e0440190ba03f090ba2359
:100f78007401f0d228e52e600d64086009d22f9024
:100f8800bf23e04410f090bf13e0f52e90bf23e09c
:100f98004440f030542d30182ae51e241af582e416
:100fa800351df5837401f0e51e241af582e4351d1c
:100fb800f583e0ff90b81ae054fefeef4ef030558e
:100fc80002d230e52d6013788ce6fc08e6fd7f023e
:100fd800122508787ae6045407f62278147443f246
:100fe800087488f2e4ff75f00aefa42492f582e50c
:100ff800f03443ad82fc75f00aefa42488f582e54d
:10100800f03443f583ecf0a3edf075f00aefa42477
:101018008af582e5f03443f5837404f00fbf3fc6c8
:10102800e49045fef0a3f0a37404f07810743ff246
:1010380008742cf2e4ff75f00eefa4243af582e56b
:10104800f0343fad82fc75f00eefa4242cf582e558
:10105800f0343ff583ecf0a3edf075f00eefa42427
:101068002ef582e5f0343ff5837403f00fbf3fc6d9
:10107800e490429ef0a3f0a37403f078127442f255
:101088000874acf2e4ffef75f016a424c2f582e40c
:101098003442ad82fcef75f016a424acf582e4343a
:1010a80042f583ecf0a3edf0ef75f016a424aef54d
:1010b80082e43442f5837402f00fbf09c9e4904317
:1010c80072f0a3f0a37402f078167446f20874085c
:1010d800f2e4ff75f046efa4244ef582e5f03446bd
:1010e800ad82fc75f046efa42408f582e5f034469d
:1010f800f583ecf0a3edf075f046efa4240af58231
:10110800e5f03446f5837401f00fbf07c6e4904755
:10111800f2f0a3f0a304f02200014343c7c7c7c7f6
:10112800353035365f53505000000000000022383b
:10113800000108e4f52e3056547878e6704c7601b4
:1011480090aa5fe0f52d7883f224fe601c047032cb
:101158007a00791278127c007d007b017aaa796086
:101168007e007f0412038d80247a00791278127c25
:10117800007d007b017aaa79647e007f0412038dca
:10118800800be47878f680058003752e01205703dc
:101198000211d37878e6640160030211d37883e200
:1011a80024fe70030211200460030211bc7879e662
:1011b80025e0247bf8e6fe08e6ff788ceef6fa08d0
:1011c800eff6fbaa0eab0f18e6fe08e6ff8e8324a7
:1011d80004f582e43583f5837421f08f828e83e5ec
:1011e800822406f582e43583f583e510f0a3e51142
:1011f800f0af15ae14ad13ac128b828a83e582244e
:1012080009f582e43583f58312074f90684ee06450
:1012180001f025e0248bf582e43420f583e0fea379
:10122800e08e10f51130000b902089e0fea3e08ecf
:1012380010f51190aa9ae510f0a3e511f00211bc7f
:101248007879e625e0247bf8e6fe08e6ff788ca6a8
:101258000e08a60f78aae6fe08e6ff8e832407f597
:1012680082e43583f583e0fd788ce6fa08e68a8324
:101278002405f582e43583f583edf08f828e83e5ce
:10128800822408f582e43583f583e0fea3e078aa9a
:10129800a60e08f618e6fe08e6f5828e83a3a3a339
:1012a800e0fea3e090aa7bf0ee90aa7af0788ce6b4
:1012b800fa08e6fb8a832404f582e43583f583740f
:1012c80022f0af15ae14ad13ac128b828a83e5827f
:1012d8002409f582e43583f58312074fe47878f61c
:1012e800788ce6fc08e6fd7f041225087879e60488
:1012f8005407f6e52e604a7878760190aa5fe0f503
:101308002d7883f224fe601c0470327a00791278fa
:10131800127c007d007b017aaa79607e007f04122e
:10132800038d801d7a00791278127c007d007b0184
:101338007aaa79647e007f0412038d8004e47878a9
:10134800f63055347879e625e0247bf8e6fe08e6a1
:10135800ff788ca60e08a60f18e6fc08e6fd8c831d
:101368002404f582e43583f5837440f07f04122564
:10137800087879e6045407f630520690aa0b7402ee
:10138800f0e52b5478ffe52a541b4f6017e52a3007
:10139800e106781f76208004781f7610e490bd035c
:1013a800f012000e305a2d300504121d03223000b1
:1013b8002312243c9057b3eef0a3eff09057b3e01c
:1013c800fca3e0fd2404f582e43cf58374c5f07fba
:1013d8000e122409228f438d44e4789ef208e5a575
:1013e800f275f06f904e191231a278b5f608eff643
:1013f8008e83e0700fe54464026009e5446404608c
:10140800030214fee544640b6013e5446404600db4
:1014180075a501af4312df45e4f5a5c223e5446491
:1014280004600b75a501af4312dcb2e4f5a51231d7
:1014380091f5828e83e030e50b75a501af4312a5c7
:10144800f2e4f5a57b06ad437fff1216f29067f232
:10145800e0b4010312373fe543d39400401c123136
:1014680091ff8e8312317ee0601012317712317e47
:10147800e4f0906531e0600214f0e54375f00aa4e9
:101488002458f582e4345daf82fe7b0ae4fd123a0b
:10149800881231918e832465123180e054066049a8
:1014a800905286e07002a3e0603fe49068e1f0901b
:1014b80068e2f0a3f09068e5f09068e4f012243c4c
:1014c800789ceef208eff22404f582e43ef583748a
:1014d80019f0ef2405f582e43ef583e543f018e2c0
:1014e800fc08e2fd7f08122409123191fff5828e73
:1014f80083e4f07b6f7a01fd1238ab123191ff8ed5
:1015080083241c1231897404123176241f12318904
:10151800e4f0a37428123176240a1231897408126f
:101528003176241512316d241312316d24141231c1
:101538006d241712316d2426123189747df0a3e4cd
:101548001231762428123189e4f0a374faf0906bf2
:1015580046e014ff18e6fc08e6fd8c8324221231cd
:1015680080eff08d828c83e582241912318974ff13
:10157800f09066f5e0ff8d828c83e58224171231a6
:1015880080eff0785be2b543037404f2e543c3945b
:10159800015034c2af905112e054fef0e544640ba0
:1015a800600790510ee054fcf0d2af906534e4f03f
:1015b80090510812076700000000e4905107f07886
:1015c8008be254eff28030905112e054fdf0e54484
:1015d800640b600be020e00790510ee054fcf090a3
:1015e8006531e07012906520f090bc22e0547ff0e5
:1015f800c221e4906575f0905b36e0b54303740250
:10160800f090510ee070081226ea789e7401f27884
:101618009ee260057f01123092789fe2f5a522e4f0
:10162800f5a8781fe620e346e4906feef0a3f0906b
:101638006b2bf020030d7e6b7f007bf07a04fdfca2
:101648001233d9906b2ce09068f0f0906feee06464
:10165800aa7004a3e06455601575a5017e6b7f0030
:101668007c407d007bf07a041236d5e4f5a5906bba
:101678003be0b401035387f79050f77406f0e4f5a4
:10168800a5128432ef600675a50112b6bfe4f5a570
:1016980020000b906b317403f0758e018006906bff
:1016a80030e0f58e1238db120ebb123ac8122e9caf
:1016b80012304412390be4f5a512eb1ae4f5a5f53e
:1016c800a5123afae4f5a5781fe630e20d1216be27
:1016d800741012312674101216e7781fe654306021
:1016e800191216be7410f0781fe6ffe5612407f59d
:1016f80082e43560f583ef1216e7781fe630e33da4
:1017080012243c8e608f61123151240412312f74df
:1017180002123150240612312f740e123126e412af
:101728003150240812312f74031231502409123118
:101738002f7403f0ad61ac607f04122409300014eb
:10174800123b5e123b4a123b54123b0e123b4012b4
:101758003b188006781fe654c0f6123ae6123ad2d1
:10176800123af0123adc12fd4ec288c28ae490bde9
:1017780013f090bd03f090bd1b740ff090bd0a7478
:101788003df0a37409f090bd037401f0e490bd0c22
:10179800f075a50112ef3ee4f5a57e047f4e7b2986
:1017a800fa7d047c061233d9900475e0fea3e06448
:1017b800557003ee64aa7025f562123137fea3e076
:1017c8004e601390045012313aff123137fca3e0f7
:1017d800f5828c83eff00562e562b40ddd221224f8
:1017e8003c8e608f618f828e83e5822404f582e4cb
:1017f8003583f5837402f08f828e83e5822406f5a3
:1018080082e43583f58322f0ad61ac607f04122455
:101818000922aa07a9059063d5e0fda3e0905842e4
:10182800cdf0a3edf0e4a3f0a3f0905842e0fca3c0
:10183800e0fd4c7003021884ed2404f582e43cf5c5
:1018480083e06b6003021863905842e0a3e024062b
:10185800f582e43cf583e0696003021863ed240532
:10186800f582e43cf583e06a6007eaf46003021855
:1018780042905842e0fca3e0fdf5828c83e0f8a397
:10188800e0f58288834583601f8d828c83a3a3e063
:10189800fea3e0ff8d828c83e0fca3e0f5828c83bd
:1018a800a3a3ee8ff0120472905844e07002a3e0f4
:1018b800704d905842e0fea3e0fff5828e83e0fd74
:1018c800a3e09063d5cdf0a3edf0906447e0fda3cd
:1018d800e08f828e83cdf0a3edf0905842e0ffa315
:1018e800e0906447cff0a3eff09063d5e0ffa3e06a
:1018f800905842cff0a3eff0e4a3f0a3f080589003
:101908005842e0fea3e0f5828e83e0fea3e0ff905c
:101918005844e0fca3e0f5828c83eef0a3eff0904e
:101928006447e0fea3e0ff905842e0fca3e0fdf529
:10193800828c83eef0a3eff0906447ecf0a3edf017
:10194800905844e0fea3e0f5828e83e0ffa3e09088
:101958005842cff0a3eff0eaf4700302170a22020c
:10196800170a905842e0fea3e0ffa3eef0a3eff0c1
:10197800f5828e83e0ffa3e0905842cff0a3eff00a
:1019880002170a905842e0fea3e0ffa3eef0a3ef8f
:10199800f0f5828e83e0ffa3e0905842cff0a3efea
:1019a800f002170a2243a110d2a4c2a490bd147455
:1019b80001f0e4f00000000000000000000090bf0b
:1019c80000e4f07411f58e90a4f4e04480f090bd2a
:1019d80010e05407781ff675200043a110d2a4c266
:1019e800a4d2a4c2a490bf00e4f090bd18740ff074
:1019f80090bd007401f090bf007403f075a50075e8
:101a0800d00078ff79dfe4f618d9fc781ef6d8fd07
:101a180075a40c5387df43a11153a3dfc2a0d2a042
:101a28000000308542c2a0000020853bd2a0000003
:101a3800308534c2a0000020852dc20353a3fe5375
:101a4800a1ef53aff920801220a40f20b10c30b2bf
:101a580009d2037480781ff6800d74aa781ff643a4
:101a6800af40c2b60219c1c2a053a3fe75a7007841
:101a7800007f00e4f208dffc9001007f007e6ae44a
:101a8800f0a3dffcdefa90c0007f007e40e4f0a304
:101a9800dffcdefa75770090000078107455f0a32b
:101aa800d8fc7581ff0219c122e493a3f8e493a33b
:101ab8004003f68001f208dff4802fe493a3f85482
:101ac80007240cc8c333c4540f4420c8834004f40b
:101ad80056800146f6dfe480110102040810204018
:101ae80080902f511219ca0208bde47e019360b894
:101af800a3ff543f30e509541ffee493a360010e91
:101b0800cf54c025e060a240b2e493a3fae493a3c3
:101b1800f8e493a3c8c582c8cac583caf0a3c8c5d8
:101b280082c8cac583cadfe9dee780be8e338f3438
:101b38008f828e83e5822404f582e43583f583e081
:101b480024fe601f147003021b2a147003021b601a
:101b580024036003021b8c7b007a04e4fd7f0212dd
:101b680024b3229063d5e0fea3e0ff4e7003021b6e
:101b7800148f828e83a3a374fff5f012047290630e
:101b8800d5e0fea3e0f5828e83a3a3e0fea3e04e9a
:101b98006003021b1412243c8e338f349063d5e00b
:101ba800fea3e0ff2405f582e43ef583e0fde5347d
:101bb8002404f582e43533f583edf0ef2406f5824d
:101bc800e43ef583e0ffe5342405f582e43533f59a
:101bd80083eff09063d5e0fea3e02404f582e43eb1
:101be800f583e0ffad34ac331224099063d5e0fef1
:101bf800a3e0fff5828e83e0fca3e08c35f53690f8
:101c08006447e0fda3e08f828e83cdf0a3edf090d2
:101c180063d5e0ffa3e0906447cff0a3eff09063b3
:101c2800d5e535f0a3e536f045356003021a5e8048
:101c380003021a5e9063d5e07002a3e0606e7b0039
:101c48007a04e4fd7f021224b322e5342406ffe47b
:101c58003533faa9077b019000011203ccff9000ed
:101c6800021203ccfd90000312049efbaaf0e53497
:101c78002406f582e43533f583e0f547121b8d22ff
:101c8800e5342406ffe43533faa9077b0190000107
:101c98001203ccff9000021203ccfde5342406fbae
:101ca800e435338b82f583e0fb1216f2228f438de5
:101cb800448a458b46e54645457003021d029063fc
:101cc800d5e07002a3e0702312243c9057d5eef0c3
:101cd800a3eff09057d5e0fca3e0fd2404f582e4df
:101ce8003cf5837401f07f07122409ab47ad44af7c
:101cf800431216f29063d5e0ffa3e09057d7cff0d8
:101d0800a3eff0e4a3f0a3f09057d7e0fea3e0ff21
:101d18004e60478f828e83a3a3e0fea3e0ffc395a6
:101d280046ee954550349057d7e0fca3e0fdc3e557
:101d3800469ff546e5459ef545a3ecf0a3edf090ea
:101d480057d7e0fea3e0f5828e83e0ffa3e090572b
:101d5800d7cff0a3eff080b080ae906447e0fea349
:101d6800e0fff5828e83a3a3e545f0a3e546f0eff7
:101d78002404f582e43ef583e547f0ef2405f58277
:101d8800e43ef583e543f0ef2406f582e43ef5836f
:101d9800e544f09057d9e0fea3e0ff4e701190643f
:101da80047e0fda3e09063d5cdf0a3edf08010905f
:101db8006447e0fda3e08f828e83cdf0a3edf09021
:101dc8006447e0fea3e0fff5828e83e0fda3e09088
:101dd80057d9cdf0a3edf09057d7e0fca3e0fd8fe5
:101de800828e83ecf0a3edf08d828c83a3a3c08355
:101df800c082c3a3e09546ff0582d58202158315ec
:101e080082e09545d082d083f0a3eff09057d9e0d7
:101e1800fea3e0ff906447eef0a3eff04e700312cc
:101e2800354422906b2ee064026003021dc390a625
:101e380022e0fea3e0ffc390a627e09fff90a6261e
:101e4800e09e903325f0a3eff0903329e0fea3e065
:101e5800ff903325e0faa3e0fb6f7002ea6e60762c
:101e6800e4905fa4f0903329e0fca3e0fdd39bec61
:101e78009a4016903325e0fea3e0ffed9fffec9e0d
:101e88009057b5f0a3eff0801a903325e0fea3e059
:101e9800ffc3e49fcf74049ecf2dcf3c9057b5f07d
:101ea800a3eff09057b5e0fea3e0ffc3ee64809483
:101eb80080500de42fffee34049057b5f0a3eff0f7
:101ec8009057b5e0ffa3e090a62ecff0a3eff090d7
:101ed800a6327480f022905fa47401f0788be254eb
:101ee800dff22290a622e0fea3e0ffc390a627e03f
:101ef8009fff90a626e09e903325f0a3eff0903345
:101f080029e0fea3e0ff903325e0fca3e0fd6f701d
:101f180002ec6e605be490332bf0c390332ae09db3
:101f2800ff903329e09cfe9057b5f0a3eff0c3ee85
:101f38006480948050249068fce060109057b6e06c
:101f48002400f09057b5e03402f0800e9057b6e0c8
:101f58002400f09057b5e03404f09057b5e0ffa3a3
:101f6800e090a62ecff0a3eff090a6327480f02276
:101f780090332b7401f0788be254dff222aa07a980
:101f8800057839e2fc08e28c71f572e4f573f574b2
:101f9800e57245717003021f90e5722404f582e42e
:101fa8003571f583e06b6003021f79e5722406f54d
:101fb80082e43571f583e0696003021f79e57224d4
:101fc80005f582e43571f583e06a6007eaf4600399
:101fd800021f62857282857183e0fca3e0fd4c607c
:101fe80019857183857282a3a3e0fea3e0ff8d8229
:101ff8008c83a3a3ee8ff0120472e5744573703bd3
:10200800857282857183e0ffa3e07839cff208ef0b
:10201800f27833e2ff08e2857282857183cff0a3fc
:10202800eff018e571f208e572f27839e2fe08e29d
:102038008e71f572e4f573f574803c857282857152
:1020480083e0ffa3e0857482857383cff0a3eff06c
:102058007833e2ff08e2857282857183cff0a3efbf
:10206800f018e571f208e572f2857482857383e0f1
:10207800fea3e08e71f572eaf47003021e7022026c
:102088001e70857173857274857282857183e0fe16
:10209800a3e08e71f572021e708571738572748566
:1020a8007282857183e0fea3e08e71f572021e7064
:1020b800228f2f8d308a318b32e532453170030201
:1020c80020b6782be2fbad30af2f121e5d7839e2d7
:1020d800fe08e28e71f572e4f573f5747835e2fe68
:1020e80008e22532f532ee3531f531e57245716099
:1020f80038857282857183a3a3e0fea3e0ffc395b0
:1021080032ee95315023c3e5329ff532e5319ef525
:1021180031857173857274857282857183e0fea33f
:10212800e08e71f57280c480c27833e2fe08e2ff67
:10213800f5828e83a3a3e531f0a3e532f0782be294
:10214800fdef2404f582e43ef583edf07833e2fefa
:1021580008e2ff2405f582e43ef583e52ff0ef243d
:1021680006f582e43ef583e530f0e57445737009c1
:102178007839eef208eff2800b857482857383ee6e
:10218800f0a3eff07833e2fe08e2fff5828e83e0f9
:10219800fca3e08c73f5748f828e83e571f0a3e560
:1021a80072f0f582857183a3a3c083c082c3a3e0c4
:1021b8009532ff0582d5820215831582e09531d0cc
:1021c80082d083f0a3eff018e573f208e574f245c6
:1021d800737003123544228e4a8f4b8f828e83e5ab
:1021e800822404f582e43583f583e060030221da72
:1021f8007839e2fe08e2f5828e83a3a3e0fea3e02d
:10220800ff7835e2fc08e2fdd3ef9dee9c40030227
:10221800219b12243c8e4a8f4b7839e2fe08e2ff5c
:102228002405f582e43ef583e0fde54b2404f582c0
:10223800e4354af583edf0ef2406f582e43ef583b4
:10224800e0ffe54b2405f582e4354af583eff01805
:10225800e2fe08e22404f582e43ef583e0ffad4b9c
:10226800ac4a1224097839e2fe08e2fff5828e832f
:10227800a3a3e0fca3e0fdc37836e29df218e29c3c
:10228800f28f828e83e0fea3e0ff7833e2fc08e25f
:10229800fd7839e2fa08e2fbf5828a83ecf0a3edd7
:1022a800f07833eaf208ebf27839eef208eff2ef61
:1022b8004e60030220d07835f208f27835e2fe0845
:1022c800e2ff4e602e7839e2fc08e2f5828c83a3a7
:1022d800a3c083c082c3a3e09fff0582d5820215f5
:1022e800831582e09ed082d083f0a3eff0e47835a6
:1022f800f208f2e47832f212241a22c0d0c0e03098
:10230800361153a4df90b203e0547ff090b207e097
:1023180020e7f9c0f0c092c083c082c085c0847530
:10232800d008759200120c17300f41d084d085d098
:1023380082d083d092d0f0d0e0d0d032c0d0c0e0ec
:10234800c0f0c092c083c082c085c08475d00875b3
:102358009200123938200503300e11d084d085d070
:1023680082d083d092d0f0d0e0d0d03275d000c0e7
:10237800a5c000c001c002c003c004c005c006c09b
:102388000775a500200e2f7470c0e07422c0e032db
:102398001227cbd007d006d005d004d003d002d066
:1023a80001d000d0a5d084d085d082d083d092d05f
:1023b800f0d0e0d0d022749fc0e07422c0e0321286
:1023c8002c32d007d006d005d004d003d002d001db
:1023d800d000d0a5d084d085d082d083d092d0f040
:1023e800d0e0d0d022c0d0c0e0c0f0c092c083c03e
:1023f80082c085c08475d008759200122a46d084a0
:10240800d085d082d083d092d0f0d0e0d0d03232f4
:10241800c000c0e0c0d0d0d0d0e0d000323232c24c
:10242800afe56f7003022400900ff893f521300a8e
:102438004c7825e2fe08e2fff5828e83a3a3a3e091
:10244800782bf2e4782ff2d2af782be2fd333333d6
:1024580054f8fd9029ca93f5a574c62df582e43485
:1024680029f583e493740193fa740293f5828a83bd
:1024780012086ae4f5a5c2af12248080a430094d81
:10248800782ce2fe08e2fff5828e83a3a3a3e0780e
:102498002bf2e4781bf2d2af782be2fd33333354be
:1024a800f8fd9029ca93f5a574c62df582e4342960
:1024b800f583e493740193fa740293f5828a831284
:1024c800086ae4f5a5c2af1224910223012008038b
:1024d800022301781ce2fe08e2fff5828e83a3a3a3
:1024e800a3e0782bf2e47822f2d2af782be2fd3326
:1024f800333354f8fd9029ca93f5a574c62df58297
:10250800e43429f583e493740193fa740293f58211
:102518008a8312086ae4f5a5c2af1224a202230135
:10252800e4782bf2f521d2af22748055a87003020b
:102538002508c2af122508d2af22748055a87003af
:10254800022ef7c2af122ef7d2af22748055a870b0
:1025580003022ca3c2af122ca3d2af22748055a8b9
:10256800700302349cc2af12349cd2af22748055df
:10257800a870030234c6c2af1234c6d2af22748028
:1025880055a870030234f0c2af1234f0d2af2274ef
:102598008055a8700302351ac2af12351ad2af227d
:1025a800748055a87003023280c2af123280d2af55
:1025b80022748055a870030232b6c2af1232b6d266
:1025c800af22748055a870030232ecc2af1232ec0d
:1025d800d2af22748055a87003021f91c2af121f98
:1025e80091d2af22748055a87003021e5dc2af124b
:1025f8001e5dd2af22748055a87003022ac6c2afee
:10260800122ac6d2af22748055a8700302323fc284
:10261800af12323fd2af22748055a8700302368bb6
:10262800c2af12368bd2af228d828c83a3a3a3efc5
:10263800f033333354f89029c99314605414700359
:102648000225b8240260030225fee56d7010782586
:10265800ecf208edf27827ecf208edf28025782705
:10266800e2fe08e2f5828e83ecf0a3edf018ecf2be
:1026780008edf2782fe2b4010a7402f27829ecf23c
:1026880008edf2056d436f048d828c83e4f0a3f0ae
:1026980022e56e7010782cecf208edf27830ecf24e
:1026a80008edf280257830e2fe08e2f5828e83ecb0
:1026b800f0a3edf018ecf208edf2781be2b4010a91
:1026c8007402f27819ecf208edf2056e436f028d90
:1026d800828c83e4f0a3f022e5707010781cecf291
:1026e80008edf2781eecf208edf28025781ee2fe85
:1026f80008e2f5828e83ecf0a3edf018ecf208ed19
:10270800f27822e2b4010a7402f27820ecf208edc1
:10271800f20570436f018d828c83e4f0a3f0228f61
:1027280043e4789ef208e5a5f275f09c9049c01242
:1027380031a2789cf208eff28e83e070030226e95a
:102748001231adff248312319ae4f0ef123198e090
:10275800ff30e705905d2a800e1231ad123198e006
:10276800ff30e60d905d29e0feeff4ffee5ff080ac
:102778001d905d3ee0ff789ce2fc08e22482f58231
:10278800ec3401f583e0f4feef5e905d3ef0e54346
:102798004480f54475a501af4312df45e4f5a575fe
:1027a800a501af4312dcb2e4f5a51231adff7b9c65
:1027b8007a01e4fd1238ab90bf23e04440f0e4789e
:1027c80070f2786df2905112e054f3f090510ee0ef
:1027d80054f3fff0788be254bff2ef70111226ea3f
:1027e800c24e90b433e054fcf0789e7401f2789ea7
:1027f800e260119066ede0700b906907e060057f7c
:1028080001123092789fe2f5a522c2af90be12e085
:102818004403f0d2af905112e054fcf0e4f51c757b
:102828001d4e751e19785df290b81be04480f0903b
:10283800b817e04404f0e4905d54f0905d55f078ea
:10284800787401f2087400f2e47855f2785b740445
:10285800f2e4ffef75f009a42488f582e43452f518
:1028680083e4f0ef75f009a424f6f582e43451f519
:1028780083e4f00fbf10dc788ae2541df2788be213
:1028880054a0f208e4f220000975a50112d11ae457
:10289800f5a5e49051e3f0905d3cf0c22190bc2393
:1028a800e054fdf07e147f2a90b60aeef0a3eff014
:1028b800783feef208eff27e1c7f5d906452eef0f6
:1028c800a3eff090b60eeef0a3eff0e4906459f0a9
:1028d80090b807f090b805f0905d2af0905d29f067
:1028e800905d3ef0905d3df0c21922c2af782be2b8
:1028f8007818f27824e521f2e56fd39401500302a9
:1029080028947e00e56f54fe24f8f582ee340ff526
:1029180083e493f521300a4c7825e2fe08e2fff5be
:10292800828e83a3a3a3e0782bf2e4782ff2d2afb0
:10293800782be2fd33333354f8fd9029ca93f5a57b
:1029480074c62df582e43429f583e493740193fa6f
:10295800740293f5828a8312086ae4f5a5c2af125d
:1029680024808094300991782ce2fe08e2fff582f9
:102978008e83a3a3a3e0782bf2e4781bf2d2af787e
:102988002be2fd33333354f8fd9029ca93f5a5742f
:10299800c62df582e43429f583e493740193fa741f
:1029a8000293f5828a8312086ae4f5a5c2af12245d
:1029b800910227d87818e2782bf27824e2f521d210
:1029c800af22905989123433905988f0905988e091
:1029d800fec39408500d1234186008905988e0041a
:1029e800f080e9905988e01207d928e60028f0011c
:1029f80028fa02290403290e042918052922062980
:102a08002c0700002935ed6003d38001c392802292
:102a1800ed6003d38001c3928522ed6003d380016a
:102a2800c3929722ed6003d38001c392b122ed6077
:102a380003d38001c392b222ed6003d38001c39215
:102a4800b322ed6003d38001c392b422ed6003d3b7
:102a58008001c392b72278aae6fe08e6fff5828ec7
:102a680083a3a3a3e0fca3e0fd78beecf2fc08ed91
:102a7800f2fdc2af8f828e837405f078aae6fe0855
:102a8800e68e832408f582e43583f583e0fea3e02f
:102a980018a60608f6d2afed4c703912243c78bc63
:102aa800eef208eff22404f582e43ef5837403f0b5
:102ab800ef2405f582e43ef5837401f018e2fc0882
:102ac800e2fd7f0e1224097e907f0078be7490f29a
:102ad800087400f2c2af906459e004f0d2af78be37
:102ae800e2fe08e2ff22ff00210200000000ff20b2
:102af800b70000000000ffb4f40000000000ffdc95
:102b0800f90101000000ff8cb00102000000fff194
:102b18005c0100000000ff57d90101000000ff1a06
:102b28000c0100000000ff71ae0202000000ff5619
:102b3800290203000000ffb9130204000000ff9af5
:102b48005c0203000000ff81630203000000ff85b0
:102b58007d0203000000fff7750205000000ff007a
:102b680021020000000030983930051a905fa2e079
:102b78002422f582e43421f583e599f0905fa2e000
:102b880004f0e0f0801a905fa2e024a5f582e43416
:102b98005ff583e599f0905fa2e004f0e0547ff0e0
:102ba800c298309940c299905fa3e0ff905fa1e07e
:102bb800fe6f602b30050f74222ef582e43422f567
:102bc80083e0f599800d74252ef582e43460f58351
:102bd800e0f599905fa1e004f0e4905fa4f0229002
:102be8005fa47401f0227836e22ff218e23ef27800
:102bf80032e2706f7839e2fe08e2ff4e605f8f8242
:102c08008e83a3a3e0fea3e0ff7835e2fc08e2fd93
:102c1800d3ef9dee9c501108e2fc08e2fd7f011203
:102c2800250878327401f2227839e2fe08e2f5824a
:102c38008e83a3a3c083c0827835e2fe08e2ffc377
:102c4800a3e09fff0582d5820215831582e09ed0fe
:102c580082d083f0a3eff0e418f208f222e478358a
:102c6800f208f2228f43e5437003feff22903322dd
:102c7800e0c39543f0902121e0f544854345e544c0
:102c8800c39490505074912544f582e43420f58320
:102c9800e0703b1545e5457038c3e544954304f5b8
:102ca800442491f582e43420af82feab43ad431255
:102cb8003a88902121e0b544032543f075f020e5da
:102cc80044a42422f582e5f03421af82fe22854314
:102cd80045054480a9123598e4feff228e858f842d
:102ce8008c838d82eb22e0ffa3e0fea3e0fda3e04e
:102cf800fca375920122122bbc601f122bc6f0a3f5
:102d0800db028016edf0a3db02800feef0a3db02fe
:102d18008008eff0a3759200dbe175920022122b78
:102d2800bc602b122bc6ebc394044002ecf0a3eb5f
:102d3800c394034002edf0a3ebc394024002eef00b
:102d4800a3eff0a3759200ebc39404fb50d57592e2
:102d58000022c2af782be27823f2782ee521f2e543
:102d68006fd39403404f7521c77825e2fe08e2ff30
:102d7800f5828e83a3a3a3e0782bf2e4782ff2d216
:102d8800af782be2fd33333354f8fd9029ca93f51d
:102d9800a574c62df582e43429f583e49374019370
:102da800fa740293f5828a8312086ae4f5a5c2af21
:102db80012248080aa7823e2782bf2782ee2f5217b
:102dc800d2af228f828e83a3a3e024fe60201460fa
:102dd80033146046240370577816e2fd08e28f82a8
:102de8008e83cdf0a3edf018eef208eff222781200
:102df800e2fd08e28f828e83cdf0a3edf018eef2ab
:102e080008eff2227810e2fd08e28f828e83cdf07f
:102e1800a3edf018eef208eff2227814e2fd08e2d2
:102e28008f828e83cdf0a3edf018eef208eff22238
:102e38009058ee1234339058edf09058ede0fec300
:102e48009408500d12341860089058ede004f08092
:102e5800e99058ede01207d92d54002d58012d5c4a
:102e6800022d60032d64042d68052d6c062d700756
:102e780000002d76a280801aa2858016a297801263
:102e8800a2b1800ea2b2800aa2b38006a2b48002c8
:102e9800a2b7e433ff227f02228f688d698a6a8b8a
:102ea8006be56b456a605412244d9059ceeef0fce8
:102eb800a3eff0fd9059cee0fea3e0ff2404f582d5
:102ec800e43ef5837403f0ef2406ffe43efe8f82b0
:102ed800f583e56cf0aa06a9077b01900001e56877
:102ee80012043e900002e56912043e900003e56a70
:102ef800856bf01204f57f071224092253b5f7c237
:102f08006053a4fec236c21f90bfa7e0543ff090a2
:102f18005577e04430fd90556fe0fb7f0b12384049
:102f2800e490bfa3f090bfa204f0a37410f0e49063
:102f3800b203f0788ae24401f212243c9057b3eecf
:102f4800f0a3eff09057b3e0fca3e0fd2404f58272
:102f5800e43cf5837431f07f0e1224092242ffd736
:102f68008c0243ffda620244ffd5d50245ffd7e160
:102f78000246ffdc230247ffdab00250ffe4850077
:102f880051ffec7e0063ffee530167ffdb9202689e
:102f9800ffce0a0169ffd4bc0271ffbcad0153ff2b
:102fa8009d3d0054ffe8560173ffe2050274ffd30c
:102fb8002b0275ffeced0076ffed0300e4ffef75e3
:102fc800f007a4244ef582e43463ad82fcef75f07b
:102fd80007a42447f582e43463f583ecf0a3edf00d
:102fe8000fbf13dae49063ccf0a3f078337463f284
:102ff800087447f2e47839f208f27832f27835f258
:1030080008f212243c7837eef208eff22404f58235
:10301800e43ef583e4f022300a1b782fe56df27860
:1030280025e2fe08e2f5828e83e0ffa3e07829cf4f
:10303800f208eff22230091b781be56ef2782ce2d9
:10304800fe08e2f5828e83e0ffa3e07819cff2084c
:10305800eff22230081a7822e570f2781ce2fe08b6
:10306800e2f5828e83e0ffa3e07820cff208eff24a
:10307800224168fc004168fb0041690a00415f9eeb
:1030880000415d6e0041540b004153650041557885
:1030980000415572004155770041556f0041540d6c
:1030a800004153660041536a004153630041554f44
:1030b8000041540c0041540e00415369004200cabb
:1030c800000000ef4e604cc3ef9422ffee9421fe07
:1030d800ef7805cec313ce13d8f9f543c3949050b7
:1030e8003274912543f582e43420f583e0fb903374
:1030f80022e02bf074912543f582e43420af82fe60
:10310800e4fd123a88902121e0ffe543c39f500374
:10311800e543f0228f668d678b6812244d9059879e
:10312800eef0fca3eff0fd905987e0fea3e0ff244a
:1031380004f582e43ef5837404f0ef2406ffe43ed0
:10314800fe8f82f583e568f0aa06a9077b01900047
:1031580001e56612043e900002e56712043e7f070f
:1031680012240922e49058ddf09058dde0ff75f054
:1031780007a424def582e43463ad82fcef75f00722
:10318800a424d7f582e43463f583ecf0a3edf09042
:1031980058dde004f0e0b40fd0e4906440f0a3f010
:1031a8009064477463f0a374d7f0e49063d5f0a3f8
:1031b800f0228f457f0390510ee07003d38001c346
:1031c8004002e4ff906907e052079066ede0b5071a
:1031d80003ef70289066edeff012243c905842ee11
:1031e800f0a3eff0905842e0fca3e0fd2404f58240
:1031f800e43cf5837445f07f05122409229059a513
:10320800eef0a3eff0eb4a603c90a403e020e1f974
:10321800c2afaf0590a406ecf0a3eff0af0390a403
:103228000aeaf0a3eff09059a5e0ffa3e090a412fa
:10323800cff0a3eff090a403e04402f0d2af90a443
:1032480003e020e1f922f08f828e83e5822407f5de
:1032580082e43583f5832290044ee56275f003120b
:103268000798e022e51e2425f582e4351df5832222
:10327800f08f828e83e5822275f003ef900361124e
:103288000798e022d287c287d287c28722f582e4d4
:103298003583f5837401f08f828e83e5822224249e
:1032a800f582e5833401f58322f582e43583f583dd
:1032b8002278b5e6fe08e6222482f582ee3401f58e
:1032c8008322ef120798ef2583af82fe22789ce2d3
:1032d800fe08e22290657ae0123864e0703b90655f
:1032e8007ae0fb75f005a42483f582e43465f58360
:1032f800eef0a3eff0eb75f005a42481f582e43439
:1033080065f583ecf0a3edf0eb1238647401f090ee
:10331800657ae004f0e0540ff022905954eef0fa88
:10332800a3eff0fba3ecf0fea3edf0ffa37401f014
:10333800ad03ac02fb7a001233dcef701c905954d9
:10334800e0fea3e0ffa3e0faa3e0fb7d017c00120e
:1033580033dfef7004905958f0905958e0ff228eef
:103368002f8f308f828e83e0fea3e0ff4e700d8595
:103378003082852f83ecf0a3edf0801b8f828e8343
:10338800e0faa3e0fb4a6006ae02af0380ee8f824c
:103398008e83ecf0a3edf08d828c83e4f0a3f02211
:1033a800d56d03536ffb782fe270197825e2fe087c
:1033b800e2fff5828e83e0fda3e07829cdf208ede7
:1033c800f2122ca3e4782ff27829e2ff08e278259c
:1033d800cff208eff222d56e03536ffd781be2702f
:1033e80019782ce2fe08e2fff5828e83e0fda3e067
:1033f8007819cdf208edf2122ca3e4781bf27819b3
:10340800e2ff08e2782ccff208eff222d5700353de
:103418006ffe7822e27019781ce2fe08e2fff5825e
:103428008e83e0fda3e07820cdf208edf2122ca304
:10343800e47822f27820e2ff08e2781ccff208ef65
:10344800f222d310af01c3c0d0edf5e9ecf5eaeff5
:10345800f5ebeef5ecebf5edeaf5ee74041400701f
:10346800fce5e9ffe5eafee5ebfde5ecfce5ede56d
:10347800eed0d092af228f458d4612243c9058450d
:10348800eef0a3eff02404f582e43ef583e545f081
:10349800ef2405f582e43ef583e546f0905845e0d3
:1034a800fca3e0fd7f02022409d310af01c3c0d002
:1034b800edf5e9ecf5eaeff5ebeef5ecebf5edea19
:1034c800f5ee7404140070fce5e9e5eae5ebe5ecdb
:1034d800e5edffe5eefed0d092af22d20e122b44de
:1034e800c20e22d20e122fa3c20e22d20e12d688dc
:1034f800c20e220239e80239f80236b00237c40295
:103508003a080239b00239c3023a18e4fe123426e6
:10351800f583e0b50719ee75f021a42494f582e44b
:103528003456f583e030e007123426af82fe220ecf
:10353800eeb401d9e4feff22a31207a48e8275839c
:10354800001203cc6f22ee75f021a42491f582e4d9
:103558003456227b017a6e79261207c4e422e5a547
:10356800f075a50522ef541fd39400e49400400f92
:10357800ef7805cec313ce13d8f904f56a800cefa3
:103588007805cec313ce13d8f9f56aaf6a1233bbe8
:1035980022d310af01c3c0d0eff5e9edf5edeef59c
:1035a800eaecf5ee7402140070fc00e5e9ffe5eac8
:1035b800fee5ebfde5ecfcd0d092af227814e2fefc
:1035c80008e2ff8e2ff530452f60168f828e83e03c
:1035d800fea3e0ff18eef2fe08eff24e700312357c
:1035e8006eae2faf30227810e2fe08e2ff8e2ff584
:1035f80030452f60168f828e83e0fea3e0ff18ee21
:10360800f2fe08eff24e700312356eae2faf302285
:103618007812e2fe08e2ff8e2ff530452f60168ff4
:10362800828e83e0fea3e0ff18eef2fe08eff24e72
:10363800700312356eae2faf30227816e2fe08e224
:10364800ff8e2ff530452f60168f828e83e0fea304
:10365800e0ff18eef2fe08eff24e700312356eae80
:103668002faf30229068af7402f0a3e5a5f0a374e1
:1036780080f0af81a807e6a3f0a37414f0e58114e5
:10368800f8e6a3f07c687dab7f04122409229068d9
:10369800af7402f0a3e5a5f0a37480f0af81a8078a
:1036a800e6a3f0a37415f0e58114f8e6a3f07c68ae
:1036b8007dab7f04122409229068af7402f0a3e561
:1036c800a5f0a37480f0af81a807e6a3f0a3741750
:1036d800f0e58114f8e6a3f07c687dab7f04122442
:1036e80009228e858f848c838d82eb601ee0ffa378
:1036f800e0fea3e0fda3e0a3759201f0a3edf0a323
:10370800eef0a3eff0a3759200dbe222d310af0135
:10371800c3c0d0eff5e9eef5eaedf5edecf5ee74a2
:1037280002140070fce5e9ffe5eafee5ede5eed000
:10373800d092af22d310af01c3c0d0eff5e9eef5b8
:10374800eaedf5edecf5ee7402140070fce5e9e540
:10375800eae5edffe5eefed0d092af2225000102aa
:10376800030405060708090a260b0c0d0e0f101195
:1037780012131415161718191a1b1c1d1e1f2021a9
:103788002223242790be27e09057e0f090be241211
:10379800071a9057dc12074f90be27e0ff9057e0ba
:1037a800e0b507e09057dc12071a228f828e83e07b
:1037b800fca3e0fdfbaa044a60118d828c83e0fd26
:1037c800a3e08f828e83cdf0a3edf0ae02af03228b
:1037d8009068f412385d7888ecf208edf27884eaa3
:1037e800f208ebf27886eef208eff212ead190686e
:1037f800f3123872228e858f848c838d82ea70034f
:10380800eb6015eb6003ea04fae493a3759201f008
:10381800a3759200dbf3daf1228e858f848c838d79
:1038280082ea7003eb6014eb6003ea04fae0a37524
:103838009201f0a3759200dbf4daf22290b001ef66
:10384800f0a3ecf0a3edf090b005e04410f0e490a4
:103858005864f000905864e004f0e0b40af522e4fb
:103868009067f2f09067f3f09067f4f0784df20803
:10387800f29067fff090b403f090bc22e0547ff020
:10388800228e858f848c838d82ea7003eb6013eb24
:103898006003ea04fae0a3759201f0759200dbf583
:1038a800daf322906b00e090b803f0906b01e0909f
:1038b800b802f0906b02e090b801f0906b03e090d2
:1038c800b800f0228e858f848c838d82af031bef26
:1038d8006010e0a3ff759201e0a37592006f60eca1
:1038e800d322c3228e758f76af05ae049068f2128c
:1038f800385dad03ac02ab76aa75129ee69068f10e
:10390800123872228e858f848c838d82eb60121b15
:10391800e493a3ff759201e0a37592006f60edd365
:1039280022c32285a53de4f5a5ef701275a5017e99
:103938006b7f007c407d007bf07a041236d5853d94
:10394800a522e4fe90f02b123a28b5070b90f03030
:10395800123a286003af06220eeeb401e77fff2279
:1039680090a4b3edf090a4b2ebf090a4b1eff09076
:10397800a4b07480f090a4b0e020e7f922e5a5f0a7
:1039880075a5012275f005a42480f582e43465f557
:103998008322eff0a3e0f5a5228e858f848c838d9a
:1039a80082eb600de493a3759201f0a3759200db9e
:1039b800f32285a53de4f5a57e147f2a7c407dd0c1
:1039c8007b2d7a011236d5853da5228e838f82ea1a
:1039d8007003eb600deb6003ea04faedf0a3dbfb88
:1039e800daf9228e858f848c838d82eb600ce0a3bc
:1039f800759201f0a3759200dbf4227598507589d1
:103a080020e587547f4480f587758de6d28ed2995c
:103a1800c2982200000002000400100022001f00cb
:103a28002a003f0054007f00ff0200e4902121f0ab
:103a3800ff7f90902091e4f0a3dffc9033227490f4
:103a4800f022905fa3e02425f582e43460f583ef4b
:103a5800f0905fa3e004f022906836e5a5f090bfef
:103a680017e0f52a90bf16e0f52b12101322026515
:103a7800a5950500010203040503665a0a050066b8
:103a8800778899aa75a50512f3bb12b81312ab8be8
:103a980012d6ffe4f5a522ab07aa06ae04af05ac23
:103aa80002ad037b017a000233d9905954e5a5f0a1
:103ab80075a50412ef8a905954e0f5a5229059543f
:103ac800e5a5f075a50412f15e905954e0f5a5221c
:103ad8009059b6e5a5f075a5011299e19059b6e09f
:103ae800f5a5229059b6e5a5f075a50112aa88900a
:103af80059b6e0f5a52290b000eff0a3edf0a3ebe6
:103b0800f090b0067410f0229057c712385d12daa0
:103b1800149057c7e0f5a5229057c712385d12be1a
:103b28000d9057c7e0f5a5229057c812385d12af1f
:103b3800b09057c71238722290690312385d127e0e
:103b48004f906903e0f5a52275f065ee120798ee2f
:103b580025e02583f583e02290596b12343e12cb81
:103b68007290596be0f5a52290599612343e12e3f3
:103b780086905996e0f5a52290594b12343e12d4fe
:103b8800af90594be0f5a522e4fe75a5041297ea1b
:103b9800ae0775a505af0622034a05660782099e8a
:103ba8000bba0dd60ff2120e8e838f82eb6005ede5
:103bb800f0a3dbfb2285a54375a50212b2cf85438e
:103bc800a52285a56075a50112d0418560a522852d
:103bd800a56475a50512f28e8564a52290b002ef42
:103be800f090b0067404f022e4f56ff56df56ef50b
:103bf8007022e4f5a512fd22e4f5a52275a50112af
:103c0800ef4be4f5a52275a50212a171e4f5a522f2
:103c180075a50112ba86e4f5a522e4f5a512c83205
:103c2800e4f5a52275a50112a074e4f5a52275a5f1
:103c38000312dedbe4f5a52275a50312de52e4f5d6
:103c4800a52275a50312b24a75a5052275a503120a
:103c5800b43775a5052275a50312d51675a50522d5
:103c680075a50312e255e4f5a52275a50312f8aa75
:103c7800e4f5a52275a50412f493e4f5a52275a52b
:103c88000512d927e4f5a522e4f5a512f76a75a56a
:103c98000522e4f5a512c42375a5052275a504120d
:103ca800e0ed75a5052275a50412f79975a50522fd
:103cb80075a50412f7c975a5052275a504124460f7
:103cc80075a5052275a50412c01f75a5052275a541
:103cd8000412b69075a5052275a50512f28e75a574
:103ce800042275a50512d4af75a5042275a5051281
:103cf800e38675a50422e4f5a512eb1a75a505223d
:103d0800740ec0e07400c0e032063822063900386c
:103d180022e4ff000fbf11fb228032807280b28044
:103d2800f212b8ca75a50422126a1e75a5042200eb
:103d38001208001000ffffffffffffffffffffff5c
:103d4800ffffffffffffffffffffffffffffffff7b
:103d5800ffffffffffffffffffffffffffffffff6b
:103d6800ffffffffffffffffffffffffffffffff5b
:103d7800ffffffffffffffffffffffffffffffff4b
:1040e800c2af90bd03e4f00000438e08d285c285bc
:1040f80000000002000effffffffffffffffffffb2
:10410800c2af90bd03e4f00000538ef7d285c2859c
:1041180000000002000effffffffffffffffffff91
:104128000011001b007900b700e00153ffff0000f9
:104138000000000000000000000000000000000374
:104148000303020202020101010101010101040449
:104158000404040404040404040404040404040318
:104168000303020202020101010101010101001b16
:10417800000a0014001effff001d007900b7ffffb2
:10418800ffff00e001530036ffff003c005a0053d8
:10419800001d016f02280168021c02a703fd00022e
:1041a800fefe01fe0102fe0b14414201020304055a
:1041b800060708090a0c0d0e0f1011131516171a09
:1041c8001e1f2021232425262728292a2b2c2d2e83
:1041d8002f3031323334353637383d3e3f4445474a
:1041e8004e4f03020504070609080b0a0d0c0f0eb3
:1041f80004360012111111114000289a07010a30e3
:10420800365540000f08b0f03f000fff1716f7664d
:10421800f5445644e124c07258c03e8000043ff47f
:10422800000210035f107f00550040006ba00040a3
:104238002444f7660c900b3368860dcf0c000009f8
:10424800f54456440c03f06a42109aa12444000035
:10425800000000000000b0f0b0f0b0f0b0f0b0f036
:1042680021018f80000000a10b01d612c5445544de
:1042780000220026009c880000004ecdcc3044402f
:104288003000381021242842525e9d4b86009b0541
:1042980031cb0f63103011131b112a246411200f26
:1042a8001e468720a0506208010d108001726d0221
:1042b80058000280460360023001000c01e2078cbe
:1042c8000c1300000b270203020205000404b59931
:1042d80001699600000000000000000000000000d6
:1042e80000000000000000000000000000000000c6
:1042f80000000000000000000000000000000000b6
:1043080000000000000000000000000000000000a5
:104318000000000000000000000000aa5501010094
:104328000201000301000400000500010600010766
:1043380000010800010900010a0100e4f54f906935
:1043480005e0f54ee4f0c222788ce24401f2a220a6
:10435800b34003024c5c904e18e01207d945410166
:1043680047100248e8034a7c0442650543d70642e1
:104378005907425f0c00004c2112f798024c271293
:10438800d510024c27d2229066d9e0540d24fb6048
:104398006724f8700302438b240c60030243d2782d
:1043a800a41296d678a5e26f700318e26e7044786e
:1043b800a6e624fe6003024c27124c9e12ee2a1237
:1043c80096f390b81be0904e1a129641129666e446
:1043d800fdff12daee904f3d12978012968b74050e
:1043e800f29066d9e04404f07f1a12f6d99066c9b3
:1043f800024847c222024c2778a6e624fe601b2406
:10440800026003024c2712dcc112962a12975a4402
:1044180001129675129715024c2712972d60fb9082
:10442800bf43e020e0099066c9e0d39402404212fd
:10443800fcf2124c9090510812076700000000909f
:1044480066dae0ff12ef8f12f81d90510e7401f03a
:10445800c2111296fe9066d9e04408f07f1012f659
:10446800d9d222e49066c9f0904f8be04490f08056
:104478002f12dcc11296f312ee2a90b81be090516d
:104488000712964112975a440390ba03f09066dadd
:10449800e0ffe4fd12daee90ba237401f01297bf40
:1044a80078457405f27847f2024c279066c9e0d344
:1044b8009420400e7f1912f6d912edcf1296b4024d
:1044c8004c2712f2f91296189066dae0904e1c12f8
:1044d8009699e04460f0c22275f06fef904f3d125c
:1044e800969de0906546f09066da129695e4f002a3
:1044f8004536c222024c27d2229066d1e0546d2460
:10450800fb700302446a24f870030244d824e07064
:10451800030244e024c07003024511246c600302c6
:10452800453c78a81296d678a8e2fc08e2fdc3efcd
:104538009dffee9cfed3ef9418ee9400504778aba5
:10454800e26d700318e26c6003024c2778a6e6243b
:10455800fe702a124c5d9051e4e0ffe4fd12daeea1
:104568009051e41296951297801296789066d1e051
:104578004404f07f1d12f6d9e49066c9f0784574ba
:1045880008f2024c27c222024c2778a6e6603224a1
:10459800fe6003024c279066c9e0d39410400b7f5d
:1045a8001b12f6d9751c01024c27124c5de4fdff65
:1045b80012daee12967912971578457408f20245c8
:1045c8003612972d60fbe0640460f6e0640560f144
:1045d80090bf43e0f55020e203024c27124c9e1294
:1045e800fc9f12975a44011296887408f212976138
:1045f800e49066c9f0024c27e4ff12ef8f024c27c3
:1046080012c2089066d1746df090510e7402f09049
:104618005112e04401129617c2221296b4904f3def
:10462800f0905107e0904e1af01297bfd219024c41
:10463800149066c9e0d39420401a7f1c12f6d91250
:10464800f81d129705904f8be044f0f0e4904e1857
:10465800f0024c27c2221297bf024c27c222024cfa
:1046680027d2229066dbe0543164016003024632af
:1046780078a6e614604114606214605f2403600346
:10468800024c27e54e64016003024c2712962a1259
:10469800966612e0a812970f78457401f2906905a2
:1046a80004f0e490b81ff090b853f0c22f90bf23e5
:1046b800e054eff0024c2712961ee54e64026003a8
:1046c800024c2712962a1297c612e0a812967978f9
:1046d8004514f290690504f0024c2712971de54e27
:1046e80064047003024c2712972d60fb90bf43e0cf
:1046f80030e034e54e6402702e78a6e6b402051266
:10470800fcf2800312fce69069057404f0d22f9045
:10471800bf23e04410f078457401f290be27e024ee
:10472800027857f2024c2712fc9f78a6e6b4020cd6
:1047380012966612e0a812968c024829124c83122f
:10474800e0a890ba2b7401f07847f2906905f0025e
:104758004c279066dbe0f95431641170521297d0ff
:104768006003024c2790bc1be04440f0e4783ef222
:10477800129734ff240efde43efcab0590b60af018
:10478800a3ebf0ef24feffe43e90b60e129662e42f
:1047980090b805f090ba237402f0e944209066dbe3
:1047a800f0af05ae047bf0e4fd123a88024c279086
:1047b80066dbe0547164317052f550783ee204f2e1
:1047c800e264026003024c2712972d60fb90bf43fe
:1047d800e030e01b90b85fe0640460f8e0640560d6
:1047e800f3000000000090bf43e030e10580007551
:1047f8005001e550600fe4ff12eab29066dbe05426
:10480800cff0024c27129761024c279066dbe0ff3d
:10481800547164716003024c27ef20e3047f018028
:1048280002e4ff12eab29066dbe05487f0024c27fc
:10483800d2229066dee0540d24fb700302484d241a
:10484800f870030248e3240c6003024c2712971dfa
:1048580078a6e614602714604414604124036003ba
:10486800024c27e54e64016003024c27129666c28b
:104878001512c92c12970f784574038017e54e64fa
:10488800026003024c271297c6c21512c92c129651
:1048980079784504f290690514f0024c2712972d97
:1048a80060fb90bf43e030e04ae54e640270447814
:1048b800a6e6b4020512fad8800312fcf290be24d0
:1048c80012071a9066ca12074f12978c9066d8740e
:1048d80001f012d3a41296807404f21297da129699
:1048e8004912f0321296f39066dee04404f07f0835
:1048f8000248dd9066d6e030e11a78a6e6640360e7
:1049080003024c271297e112961ee4904e18f07f8e
:10491800070248dd904953e030e01a78a6e66403c0
:104928006003024c271297e112961ee4904e18f08d
:104938007f070248dd12fc9f78a6e6b4021512969e
:104948006612c92c12968c7403f2906905e54ef034
:10495800024c27124c8312c92c90ba2b7401f078a0
:10496800477403f29069057401f0024c2778a6e6b3
:1049780024fe602424026003024c279066cde044a4
:1049880002f012d3a412975a440190ba0bf012966f
:104998002a129679784580279066d8e004f0129715
:1049a8002d60fb90bf42e030e01b12978c12d3a41d
:1049b8001296f312f0321297da1296491296807410
:1049c80004f2024c2790bf43e020e003024c271278
:1049d800961812fcf212f2f990510e7401f0c211fd
:1049e800124c901296fe904f8be044f0f0e49050f9
:1049f800acf0c2229066dee04408f07f1012f6d9cf
:104a0800024c27c222024c27d22212961e784574e5
:104a180002f29066d4e0ff541924f7604324f06052
:104a28005324187075ef30e6121297949066d5e00b
:104a380020e6031297b4754f01806178a6e66402f8
:104a4800705a754f0112e5b41296709066d4e0441e
:104a580040f09066ee1297a0fd7f0f1224b3803cc1
:104a68009066e9e060099066d5e04401f0802d90f9
:104a780066d480209066d5e020e4217f0c12f6d918
:104a8800c2af90be12e04403f0d2af788ce254fe7d
:104a9800f29066d5e04410f08002c2229066d5e01c
:104aa800ff5407febe010aef4402f012971d024ca4
:104ab80027ee64036003024a5112971d1297d060d3
:104ac80003024c271297daf0e0547ff090b81ae00e
:104ad80054fef0e054fdf0906718e060259066e918
:104ae800e0fdd3941150081297794418f08036ed00
:104af800d3947912977950054450f080284470f087
:104b080080239066e9e0fdd3941b500812977944fe
:104b180020f08011edd394b712977950054458f0de
:104b280080034478f090b817e054fc4402f0e05455
:104b3800fbf09066e9e075f008a4ff90b817e05420
:104b480007fded4fffe5f012965a78477409f29089
:104b5800207fe0ffa3e090b61acf129662e490b8e7
:104b680005f090ba2304f09066d5e04404f0024cb6
:104b7800279066d5e0fd540764076003024c2712ae
:104b8800971d90b85be06003024c27ed54f89066df
:104b9800d5f09066d4e04410f0024c27d2229066fb
:104ba800d6e0ff543d24fb605d24e87003024bc649
:104bb800241c6003024c1def30e6129066d7e020fb
:104bc800e6031297b4129794754f01803178a6e6e0
:104bd8006402702a754f0112ecb512961e12967077
:104be8009066d6e04440f0906b06e070057b80fa52
:104bf80080069066f21297a0fd7f0f1224b37845c5
:104c08007406f2024c27784ae2fdc378a6e69d5462
:104c180003f54d6401704e12978c90be27e0c39d3a
:104c28001313543f049066d8f0e0ff640570030244
:104c38004bbeefd3940540117f1312f6d99066d678
:104c48007480f012961e024bbe12962a90b85be052
:104c5800640c60f8e0640160f312e43e90be271231
:104c68009673024bbe9066d8e06073e58e54707000
:104c7800057551288003e4f551e4f550e550c395d6
:104c880051500500055080f4e54d64036004e54d7e
:104c9800704c90bf43e030e04590b85fe064056039
:104ca800f8000090bf43e030e23190b82be0547830
:104cb8006410702790be27e07858f29066cde044e3
:104cc80002f012e43e12fc9f12966690ba23740119
:104cd800f012976178457407f2800312fcf2784568
:104ce8007407f2024c2712c20890be27e0540378da
:104cf800a6f69066d6e04420f0905112e04401f008
:104d080090510e7402f01296b4905107e0904e1a2a
:104d1800129617904f3de4f012dcc112975a4403e3
:104d280090ba0bf0783fe2ff08e290b60acff0a302
:104d3800eff0d222904e1ce04490f0800ac222800c
:104d480006788ce254fef2302232e490b8bbf0e5eb
:104d58004f600b906b4a1297eb4440f08009906bc0
:104d6800491297eb54bff090ba23e020e00790babd
:104d78002be030e00790b87be054fcf02212dcc155
:104d880090be27e054fc440390ba0bf090b60a7426
:104d98001cf0a37470f090b60e741cf0a37482f02b
:104da800c2152212f11490be27e00490ba0bf0222b
:104db8007e507ffd7c6b7d007b0a1238c32212dc9b
:104dc800c1906b46e0ff12ba09228f51e478a8f22d
:104dd80078aaf2784c7406f2e4906865f078abf241
:104de8000804f278a9e51cf2e2fb75f06fa4241917
:104df800f582e5f0344ef583eb2583af82f5528fcb
:104e080053f583e5822449f582e5833401f583e08f
:104e1800541f18f2700302540e90be17e04402f0bb
:104e28000000000090be00e0fca3e0fda3e0fea3ac
:104e3800e0ff78011206a078a6eef208eff278aa51
:104e4800e204f278a8e2146023147003024e74247a
:104e5800fe70030250b224f470030252b4240860b6
:104e68000302540e78abe204f202540ee553245abe
:104e7800f582e5523401f583e0fea3e0ff78a6e26f
:104e8800fc08e2fdc3ef9dffee9ccf24ffcf34ff6b
:104e9800fee5532454f582e5523401f583eef0a380
:104ea800eff0e553246bf582e5523401f583e0ff1a
:104eb800e553245af582e5523401f583e0fca3e07a
:104ec800c39fffec9400cf24ffcf34fffee55324ab
:104ed8005af582e5523401f583eef0a3eff0e5537d
:104ee8002449f582e5523401f5837402f0ad037864
:104ef8002be2fb7f051224c4e553246bf582e552af
:104f08003401f583e0ff7846e2f9fdef2dffe43345
:104f1800fee5532454f582e5523401f583e0fca301
:104f2800e0d39fec9e500302540ee553245af582b9
:104f3800e5523401f583e0fea3e0ff78a6e2fc0821
:104f4800e2fdc3ef9dffee9cfee9fdc3ef9dffee82
:104f58009400cf24fecf34fffe78a4f2fa08eff2d3
:104f6800fb78a9e2fd7f051224b3e5532449f582b5
:104f7800e5523401f5837408f0e478acf218e204e1
:104f8800f2e553244af582e5523401f583e0440101
:104f9800f002540ee5532454f582e5523401f583aa
:104fa80074fff5f012047278a6e2fe08e2fff554e9
:104fb800e553245af582e5523401f583e0fca3e079
:104fc800fdc39554f554784ce2fbe554c39b500956
:104fd800e55494004003e554f2784ce2fb785ce237
:104fe800fac39b5006784feaf28004784febf2ef51
:104ff8006d7002ee6c6003025045e553246bf58238
:10500800e5523401f583e0ff7e00e5532450f58234
:10501800e5523401f583e0fca3e02fffee3ccf24fa
:10502800ffcf34fffee5532458f582e5523401f5ed
:1050380083eef0a3eff090510ee064027072e55336
:105048002468f582e5523401f583e0605de5532478
:105058006af582e5523401f583e06011e55324686e
:10506800f582e5523401f5837402f0801ce553247f
:1050780069f582e5523401f583e0ffe5532468f5cc
:1050880082e5523401f583eff0e5532468f582e5b3
:10509800523401f583e0ff12f508e553244bf582fd
:1050a800e5523401f583e04408f0e47862f2802e9a
:1050b80078a9e2ff75f06fa4241cf582e5f0344e60
:1050c800f583ef2583f583e04460f0906865eff0a1
:1050d800e5532446f582e5523401f583e4f0e553bf
:1050e800244bf582e5523401f583e04480f0855382
:1050f80082855283a3a37404f078a9e2ff75f06f48
:10510800a4241cf582e5f0344ef583ef2583f5835e
:10511800e04480f0e5532449f582e5523401f583f3
:105128007404f0d219e553246bf582e5523401f585
:1051380083e0ffe5532454f582e5523401f583e416
:10514800f0a3eff0e553244bf582e5523401f583e3
:10515800e04420f0e553245df582e5523401f583ff
:10516800e4f002540ee5532454f582e5523401f577
:1051780083e0fea3e04e600302540ee5532456f587
:1051880082e5523401f583e0fea3e0ffe553245a9b
:10519800f582e5523401f583ee8ff0120472e5537f
:1051a8002455f582e5523401f5837480f0e55324e3
:1051b8004bf582e5523401f583e04480f078a9e2aa
:1051c800ff128e69ef700302540e78abe204f2020c
:1051d800540ee553245af582e5523401f583e0fe76
:1051e800a3e0ff78a7e2b5071818e2b50613e55360
:1051f800244bf582e5523401f583e030e50302548f
:105208000ee553244bf582e5523401f583e030e591
:1052180033e5532456f582e5523401f583e0fea3c5
:10522800e0ffe553245af582e5523401f583ee8f09
:10523800f0120472e553244bf582e5523401f583ec
:10524800e054dff0e5532454f582e5523401f58348
:1052580074fff5f0120472e5532458f582e55234d0
:1052680001f583e0fea3e04e6013e5532458f58270
:10527800e5523401f58374fff5f0120472af53aeb2
:105288005212f3ece5532458f582e5523401f583c4
:10529800e0fea3e04e6003025202855382855283ea
:1052a800a3a37402f078a9e2ff75f06fa4241cf59b
:1052b80082e5f0344ef583ef2583f583e0547ff0e3
:1052c800e5532452f582e5523401f583e0fca3e06e
:1052d8004c6042e553245df582e5523401f583e0e4
:1052e8007033e5532449f582e5523401f58374108f
:1052f800f0e5532452f582e5523401f583e0fca32e
:10530800e0fde5532458f582e5523401f583ecf0cd
:10531800a3edf08045128e69ef603f78abe204f2ae
:10532800803878a9e2d394004030e553244bf582c5
:10533800e5523401f583e030e720e5532454f58243
:10534800e5523401f583e0fea3e04e600d855382fb
:10535800855283a3a3a3e04420f0e5532454f582a7
:10536800e5523401f583e0fea3e04e7022e55324b4
:1053780056f582e5523401f583e0fea3e0ffe553dc
:105388002454f582e5523401f583eef0a3eff0e5fd
:1053980053245af582e5523401f583e0fea3e0ff79
:1053a80078a7e26f700318e26e600302540ee553ab
:1053b8002456f582e5523401f583e0fea3e0ffe5cb
:1053c80053245af582e5523401f583ee8ff0120426
:1053d8007202540ee5532454f582e5523401f583e4
:1053e80074fff5f0120472855382855283a3a37467
:1053f80002f078a9e2ff75f06fa4241cf582e5f0ad
:10540800344ef583ef2583f583e0547ff0e553248c
:1054180058f582e5523401f583e0fea3e04e6013af
:10542800e5532458f582e5523401f58374fff5f00d
:10543800120472af53ae5212f3ece5532458f582be
:10544800e5523401f583e0fea3e04e700f78a9e23f
:10545800ff128e69ef600578abe204f2e553245a37
:10546800f582e5523401f583e0fea3e0ff78a7e278
:105478006f700318e26e600302540ee553246bf557
:1054880082e5523401f583e0ff7e00e5532450f5b0
:1054980082e5523401f583e0fca3e02fffee3ccf18
:1054a80024ffcf34fffee5532458f582e55234013a
:1054b800f583eef0a3eff0855382855283a3a3749e
:1054c80004f078a9e2ff75f06fa4241cf582e5f0da
:1054d800344ef583ef2583f583e04480f0e55324cb
:1054e80049f582e5523401f5837404f0e553246be1
:1054f800f582e5523401f583e0ffe5532454f58243
:10550800e5523401f583e4f0a3eff0e5532456f5b2
:1055180082e5523401f583e0fea3e0ffe553245a07
:10552800f582e5523401f583ee8ff012047278ab00
:10553800e26006788ce254f7f22278a87401f290bf
:10554800b82be0547878a6f2c22fc22bc229e408ff
:10555800f2e054077859f278a6e21207d954cd0838
:1055680055331054981854982054a42854ae3054e5
:10557800b738551f40552a4854845054845854c04d
:105588006054c068546e70546e780000553578a722
:10559800740426f6d22978a87405f2187401f2d298
:1055a8002f02553578a70606d22978a87403f21871
:1055b8007401f2d22f025535d22978a77401f2d29c
:1055c8002f02553578a77401f2d22f02553578a7e6
:1055d8007401f2d22f807e78a77401f2d22f8075e1
:1055e80078a7060678a77401f2d22f8068d22b908c
:1055f8004e18e0b4061690510ee0b4020fe4904e37
:1056080018f07f1612f6d9e49066d1f0904e18e0a3
:10561800b404159066d6e030e30ee4904e18f0908e
:1056280066d6f07f1612f6d99067f3e0b40126909b
:105638004e38e0ffa3e0784dcff208eff2801678fd
:10564800a77401f2d229d22f800b78a77401f2d265
:105658002f8002d22f90b82be030e70f851e82856d
:105668001d83a3a3a3e04410f0801b851e82851d23
:1056780083a3a3a3e054eff0e51e2446f582e51dbd
:105688003401f583e4f0851e82851d83a3a3a3e07e
:10569800ff20e30302578890b82ae020e00302576e
:1056a80088851e82851d83a3a3a3ef54f7f0e51e0a
:1056b8002434f582e4351df583e020e2030256b078
:1056c800785ee2fe08e2f5828e83e06403600302fe
:1056d80056b018e2fe08e2f5828e837404f01224b4
:1056e8003c78a4eef2fc08eff2fd18e2fe08e2ffb7
:1056f8002404f582e43ef5837405f0785ee2fa0846
:10570800e22407f582e43af583e0fbef2405f5820d
:10571800e43ef583ebf07f0312240975f06fe51c76
:10572800a4241cf582e5f0344ef583251cf583e0ae
:1057380054fdf0e51e2448f582e51d3401f583e0ab
:10574800ff30e057e51e2448f582e51d3401f58356
:10575800ef54fef0e51e2460f582e51d3401f58363
:10576800e030e110e51e2448f582e51d3401f5839b
:10577800e04402f0e51e2460f582e51d3401f5835e
:10578800e030e210e51e2448f582e51d3401f5837a
:10579800e04404f0ad1c7f1c12f572785ee2fe084e
:1057a800e22408f582e43ef583e0fea3e0ff18ee6c
:1057b800f2fe08eff24e601875f06fe51ca4241c89
:1057c800f582e5f0344ef583251cf583e04401f0bd
:1057d800e51e2434f582e4351df583e06402600398
:1057e8000257887849e2700218e27003025788125b
:1057f800243c78a4eef208eff22404f582e43ef5a6
:10580800837406f0ef2405f582e43ef583e51cf089
:1058180018e2fc08e2fd7f031224097848e2fe083a
:10582800e2f5828e83e030e25e12243c78a4eef248
:1058380008eff22404f582e43ef5837403f0ef24c4
:1058480005f582e43ef583e51cf07848e2fe08e2bf
:10585800ff2405f582e43ef583e0fb78a4e2fc082a
:10586800e2fd2406f582e43cf583ebf0ef2406f52f
:1058780082e43ef583e0ffed2407f582e43cf583fe
:10588800eff07f06122409c2207848e2fe08e2ff02
:10589800f5828e83e054f0fdbd700690686774064b
:1058a800f08f828e837408f09067f3e0541e6003d3
:1058b80002581920290302581990b82ae05402f511
:1058c8004ee51e2446f582e51d3401f5837404f087
:1058d800e51e241df582e4351df583e0654e703123
:1058e800e51e241ef582e4351df583e0ff90b82ff0
:1058f800e05403b5071b9067f2e0703dc22f12fc1d
:10590800f2e51e241af582e4351df5837401f08052
:105918002878a8e2d394014020906865e0601ac214
:10592800297401f2c22f12fcf2e51e241af582e452
:10593800351df583e4f078a7f6e51e2449f582e5e0
:105948001d3401f583e0ff541e7003025997ef548c
:1059580014602a90510ee0b4010b851e82851d83c8
:10596800a3a37404f075f06fe51ca4241cf582e56c
:10597800f0344ef583251cf583e04480f02029039c
:1059880002590be51e2452f582e51d3401f583e02a
:10599800fea3e0ff78a8e2fd7c00ef2df54fec3e7a
:1059a800f54ee51e2458f582e51d3401f583e0fe29
:1059b800a3e0c3954fee954e505790510ee0b401b9
:1059c8001de54f24ffffe54e34fffee51e2458f584
:1059d80082e51d3401f583eef0a3eff08013e51e98
:1059e8002458f582e51d3401f583e54ef0a3e54f13
:1059f800f0e51e2449f582e51d3401f583e05428bd
:105a0800700fe51e2449f582e51d3401f583740401
:105a1800f090b82fe05403ffbf0310e51e244bf5a8
:105a280082e51d3401f583e04440f0e51e244bf582
:105a380082e51d3401f583e030e62030291d851efe
:105a480082851d83a3a3a3e04420f0e51e244bf523
:105a580082e51d3401f583e054bff090510ee064f7
:105a6800017054e51e244bf582e51d3401f583e0f1
:105a7800ff30e723783ce2b4101de51e244bf58285
:105a8800e51d3401f583ef547ff0851e82851d8363
:105a9800a3a3a3e054dff020291d851e82851d8362
:105aa800a3a3a3e0542f700fe51e245df582e51d26
:105ab8003401f5837401f090510ee0b4011178a817
:105ac800e2d394014003025aee12a09f025aee124a
:105ad8009d5ae51e244bf582e51d3401f583e0ff50
:105ae80030e723783ce2b4101de51e244bf582e52f
:105af8001d3401f583ef547ff0851e82851d83a335
:105b0800a3a3e054dff09067f3e0541e7003025a39
:105b1800ee78a7e27003025aee90b82fe05403ff24
:105b2800bf030918e264187003025aee78a6e2ff70
:105b3800131313541ff54e9067f5eff090b82fe04c
:105b480054039067f6f090b82ee0541ffea3e0547b
:105b5800f87803cec313ce13d8f9ff9067fbeef0a5
:105b6800a3eff0e54ec39404405f74fc254ef54e58
:105b7800906803e0ff7028e54e25e0244ef582e4a6
:105b88003440f583e493fc740193fdd39067fce003
:105b98009d9067fbe09c4031ecf0a3edf0802aef8c
:105ba800b42026e54e25e02466f582e43440f583ea
:105bb800e493fe740193ffd39067fce09f9067fb2a
:105bc800e09e4005eef0a3eff0a229e4339067fed3
:105bd800f09067f47402f09067ffe070167e037f20
:105be8004a9067f9eef0a3eff09067f7eef0a3efb5
:105bf800f080147e077f479067f9eef0a3eff090ee
:105c080067f7eef0a3eff09067ffe06401f09066ad
:105c1800d9e030e01aa3e0b51c15904e18e0b405a1
:105c280002e4f0e49066d9f07f1412f6d98023904c
:105c38004e18e0b4021c9066dfe0b51c159066ded5
:105c4800e030e30ee4904e18f09066def07f141218
:105c5800f6d912fd0a90be09e0ffe51e242af58256
:105c6800e4351df583eff090be0ae0ffe51e242b16
:105c7800f582e4351df583eff012fcbde51e24190d
:105c8800f582e51d3401f583eff0851e82851d83bd
:105c9800e030e603129f0522e478aaf208f208f23f
:105ca80008f208f278a8f208f278a9e2ffc3940291
:105cb80040030262af75f09cefa424c0f582e5f0c2
:105cc8003449f583ef2583f583e020e7030262a7d3
:105cd800e2fb75f09ca424c0f582e5f03449f58315
:105ce800eb2583af8278a6f208eff278ace204f2f3
:105cf80090be17e04402f00000000090be00e0fcf7
:105d0800a3e0fda3e0fea3e0ff78011206a078a4bb
:105d1800eef208eff208e2fe08e2f5828e83a3e0d5
:105d2800ff08f26402707c789ee6fe08e68e832403
:105d38008af582e5833401f583e06005af031270cc
:105d48008d78a6e2fe08e2ff2425f582e43ef5837d
:105d5800e0fca3e0fd78a4e2fa08e2fbc3ed9bfdba
:105d6800ec9afc7869e2f9fbc3ed9bfdec9400cd5d
:105d780024ffcd34fffc78adf208edf2ef2481f575
:105d880082ee3401f583e02402ffe92fff78aaf2be
:105d9800d3ed9f7480f86c98500978a87408f2e4e1
:105da800786ef278a8e224f87003025d1824f8707f
:105db80003025d2824d06032243e600302629c788e
:105dc8009ee6fe08e68e83248af582e5833401f593
:105dd80083e0700778a9e2ff12708d78a9e2ff12bc
:105de800b3a178abe204f202629c90510ee0640821
:105df800702a78a6e2fe08e22448f582e43ef5839c
:105e0800e0ff54076016ef20e41218e2fe08e224cf
